{
  "contractName": "PublicationFactory",
  "abi": [
    {
      "constant": true,
      "inputs": [
        {
          "name": "",
          "type": "uint256"
        }
      ],
      "name": "publications",
      "outputs": [
        {
          "name": "title",
          "type": "string"
        },
        {
          "name": "author",
          "type": "string"
        },
        {
          "name": "isPeerReview",
          "type": "bool"
        },
        {
          "name": "publishDate",
          "type": "uint256"
        }
      ],
      "payable": false,
      "stateMutability": "view",
      "type": "function"
    },
    {
      "constant": true,
      "inputs": [
        {
          "name": "",
          "type": "uint256"
        }
      ],
      "name": "publicationToOwner",
      "outputs": [
        {
          "name": "",
          "type": "address"
        }
      ],
      "payable": false,
      "stateMutability": "view",
      "type": "function"
    },
    {
      "constant": true,
      "inputs": [
        {
          "name": "",
          "type": "uint256"
        }
      ],
      "name": "publicationToReview",
      "outputs": [
        {
          "name": "",
          "type": "uint256"
        }
      ],
      "payable": false,
      "stateMutability": "view",
      "type": "function"
    },
    {
      "anonymous": false,
      "inputs": [
        {
          "indexed": false,
          "name": "id",
          "type": "uint256"
        },
        {
          "indexed": false,
          "name": "author",
          "type": "string"
        }
      ],
      "name": "NewPublication",
      "type": "event"
    },
    {
      "constant": false,
      "inputs": [
        {
          "name": "_title",
          "type": "string"
        },
        {
          "name": "_author",
          "type": "string"
        }
      ],
      "name": "createPublication",
      "outputs": [],
      "payable": false,
      "stateMutability": "nonpayable",
      "type": "function"
    },
    {
      "constant": false,
      "inputs": [],
      "name": "getPublicationPeerReviewed",
      "outputs": [
        {
          "name": "",
          "type": "bool"
        }
      ],
      "payable": false,
      "stateMutability": "nonpayable",
      "type": "function"
    }
  ],
  "bytecode": "0x6060604052341561000f57600080fd5b6107708061001e6000396000f30060606040526004361061006d576000357c0100000000000000000000000000000000000000000000000000000000900463ffffffff1680631fd5bbab146100725780633e1c8b8e146101c65780634005a9bf146102665780637c9a46b7146102c957806396fbeb90146102f6575b600080fd5b341561007d57600080fd5b610093600480803590602001909190505061032d565b604051808060200180602001851515151581526020018481526020018381038352878181546001816001161561010002031660029004815260200191508054600181600116156101000203166002900480156101305780601f1061010557610100808354040283529160200191610130565b820191906000526020600020905b81548152906001019060200180831161011357829003601f168201915b50508381038252868181546001816001161561010002031660029004815260200191508054600181600116156101000203166002900480156101b35780601f10610188576101008083540402835291602001916101b3565b820191906000526020600020905b81548152906001019060200180831161019657829003601f168201915b5050965050505050505060405180910390f35b34156101d157600080fd5b610264600480803590602001908201803590602001908080601f0160208091040260200160405190810160405280939291908181526020018383808284378201915050505050509190803590602001908201803590602001908080601f01602080910402602001604051908101604052809392919081815260200183838082843782019150505050505091905050610377565b005b341561027157600080fd5b610287600480803590602001909190505061038e565b604051808273ffffffffffffffffffffffffffffffffffffffff1673ffffffffffffffffffffffffffffffffffffffff16815260200191505060405180910390f35b34156102d457600080fd5b6102dc6103c1565b604051808215151515815260200191505060405180910390f35b341561030157600080fd5b61031760048080359060200190919050506103fb565b6040518082815260200191505060405180910390f35b60008181548110151561033c57fe5b9060005260206000209060040201600091509050806000019080600101908060020160009054906101000a900460ff16908060030154905084565b61038a828260004263ffffffff16610413565b5050565b60026020528060005260406000206000915054906101000a900473ffffffffffffffffffffffffffffffffffffffff1681565b6000806000808154811015156103d357fe5b906000526020600020906004020190508060020160009054906101000a900460ff1691505090565b60016020528060005260406000206000915090505481565b600060016000805480600101828161042b91906105ca565b916000526020600020906004020160006080604051908101604052808a8152602001898152602001881515815260200187815250909190915060008201518160000190805190602001906104809291906105fc565b50602082015181600101908051906020019061049d9291906105fc565b5060408201518160020160006101000a81548160ff021916908315150217905550606082015181600301555050039050336002600083815260200190815260200160002060006101000a81548173ffffffffffffffffffffffffffffffffffffffff021916908373ffffffffffffffffffffffffffffffffffffffff1602179055507f862efd97586c7c2d9179befe2a00eb2ea7e5b782392b97bdd6fb002f876f471881856040518083815260200180602001828103825283818151815260200191508051906020019080838360005b8381101561058857808201518184015260208101905061056d565b50505050905090810190601f1680156105b55780820380516001836020036101000a031916815260200191505b50935050505060405180910390a15050505050565b8154818355818115116105f7576004028160040283600052602060002091820191016105f6919061067c565b5b505050565b828054600181600116156101000203166002900490600052602060002090601f016020900481019282601f1061063d57805160ff191683800117855561066b565b8280016001018555821561066b579182015b8281111561066a57825182559160200191906001019061064f565b5b50905061067891906106d7565b5090565b6106d491905b808211156106d0576000808201600061069b91906106fc565b6001820160006106ab91906106fc565b6002820160006101000a81549060ff0219169055600382016000905550600401610682565b5090565b90565b6106f991905b808211156106f55760008160009055506001016106dd565b5090565b90565b50805460018160011615610100020316600290046000825580601f106107225750610741565b601f01602090049060005260206000209081019061074091906106d7565b5b505600a165627a7a723058204fa3ef2a6451ca38d86874b16f4a2b377af7e8a29d46268348ce72ec7c3765cd0029",
  "source": "pragma solidity ^0.4.19;\n\ncontract PublicationFactory {\n  //storage and variables\n  Publication[] public publications;\n\n  //events\n  event NewPublication(uint id, string author);\n\n  //models\n  struct Publication {\n    //uint reviewedStudyId; //MAY NOT NEED THIS\n    string title;\n    /* string abs;\n    string introduction;\n    string methods;\n    string results;\n    string discussion;\n    string[] citations; */\n    string author;\n    /* string[] keywords; //maybe this can be mapped as well */\n    bool isPeerReview;\n    uint publishDate;\n  }\n\n  //mappings\n  mapping(uint => uint) public publicationToReview;\n  mapping(uint => address) public publicationToOwner;\n  /* mapping(uint => string) public publicationToKeywords; //may not need this */\n\n  //modifier\n  /* modifier goodCreationValues(bool _isPeerReviewed) { */\n    /* require(_title.length != 0 && _abs.length != 0); */ //todo: can we validate on the front end?\n    /* require(_isPeerReviewed == false);\n    _;\n  } */\n\n  //methods\n  /* function _createPublication(string _title, string _abs, string _introduction, string _methods, string _results, string _discussion, string[] _citations, string _author, string[] _keywords, bool _isPeerReviewed, uint _publishDate) internal { */\n  function _createPublication(string _title, string _author, bool _isPeerReviewed, uint _publishDate) internal {\n     uint id = publications.push(Publication(_title, _author, _isPeerReviewed, _publishDate)) - 1;\n      //publicationToReviewer\n\n\n      //publicationToOwner\n      publicationToOwner[id] = msg.sender;\n\n      //publicationToKeywords\n\n      NewPublication(id, _author);\n  }\n\n  function createPublication(string _title, string _author) public {\n    _createPublication(_title, _author, false, uint32(now));\n  }\n\n  function getPublicationPeerReviewed() public returns (bool) {\n      Publication storage firstPub = publications[0];\n      return firstPub.isPeerReview;\n  }\n\n}\n",
  "sourcePath": "/Users/paulcullenrowe/playground/ethereum-scientific-journal/contracts/PublicationFactory.sol",
  "compiler": {
    "name": "solc",
    "version": "0.4.19+commit.c4cbbb05.Emscripten.clang"
  },
  "schemaVersion": "1.0.1",
  "updatedAt": "2018-02-18T07:30:30.586Z"
}